{
  "contractName": "Election",
  "abi": [
    {
      "inputs": [],
      "stateMutability": "nonpayable",
      "type": "constructor"
    },
    {
      "inputs": [
        {
          "internalType": "uint256",
          "name": "",
          "type": "uint256"
        }
      ],
      "name": "candidates",
      "outputs": [
        {
          "internalType": "uint256",
          "name": "id",
          "type": "uint256"
        },
        {
          "internalType": "string",
          "name": "cname",
          "type": "string"
        },
        {
          "internalType": "uint256",
          "name": "voteCount",
          "type": "uint256"
        },
        {
          "internalType": "string",
          "name": "cparty",
          "type": "string"
        },
        {
          "internalType": "string",
          "name": "cbio",
          "type": "string"
        },
        {
          "internalType": "string",
          "name": "cimage",
          "type": "string"
        }
      ],
      "stateMutability": "view",
      "type": "function"
    },
    {
      "inputs": [],
      "name": "candidatesCount",
      "outputs": [
        {
          "internalType": "uint256",
          "name": "",
          "type": "uint256"
        }
      ],
      "stateMutability": "view",
      "type": "function"
    },
    {
      "inputs": [],
      "name": "state",
      "outputs": [
        {
          "internalType": "enum Election.PHASE",
          "name": "",
          "type": "uint8"
        }
      ],
      "stateMutability": "view",
      "type": "function"
    },
    {
      "inputs": [
        {
          "internalType": "address",
          "name": "",
          "type": "address"
        }
      ],
      "name": "voters",
      "outputs": [
        {
          "internalType": "bool",
          "name": "hasVoted",
          "type": "bool"
        },
        {
          "internalType": "uint256",
          "name": "vote",
          "type": "uint256"
        },
        {
          "internalType": "bool",
          "name": "isRegistered",
          "type": "bool"
        }
      ],
      "stateMutability": "view",
      "type": "function"
    },
    {
      "inputs": [
        {
          "internalType": "enum Election.PHASE",
          "name": "x",
          "type": "uint8"
        }
      ],
      "name": "changeState",
      "outputs": [],
      "stateMutability": "nonpayable",
      "type": "function"
    },
    {
      "inputs": [
        {
          "internalType": "string",
          "name": "_cname",
          "type": "string"
        },
        {
          "internalType": "string",
          "name": "_cparty",
          "type": "string"
        },
        {
          "internalType": "string",
          "name": "_cbio",
          "type": "string"
        },
        {
          "internalType": "string",
          "name": "_cimage",
          "type": "string"
        }
      ],
      "name": "addCandidate",
      "outputs": [],
      "stateMutability": "nonpayable",
      "type": "function"
    },
    {
      "inputs": [
        {
          "internalType": "address",
          "name": "user",
          "type": "address"
        }
      ],
      "name": "voterRegistration",
      "outputs": [],
      "stateMutability": "nonpayable",
      "type": "function"
    },
    {
      "inputs": [
        {
          "internalType": "uint256",
          "name": "_candidateId",
          "type": "uint256"
        }
      ],
      "name": "vote",
      "outputs": [],
      "stateMutability": "nonpayable",
      "type": "function"
    }
  ],
  "bytecode": "0x608060405234801561001057600080fd5b50336000806101000a81548173ffffffffffffffffffffffffffffffffffffffff021916908373ffffffffffffffffffffffffffffffffffffffff1602179055506000600460006101000a81548160ff0219169083600281111561007757610076610081565b5b02179055506100b0565b7f4e487b7100000000000000000000000000000000000000000000000000000000600052602160045260246000fd5b611268806100bf6000396000f3fe608060405234801561001057600080fd5b50600436106100885760003560e01c80633b24fe961161005b5780633b24fe961461011857806342b03cc914610134578063a3ec138d14610150578063c19d93fb1461018257610088565b80630121b93f1461008d578063268f1153146100a95780632d35a8a2146100c55780633477ee2e146100e3575b600080fd5b6100a760048036038101906100a291906109ac565b6101a0565b005b6100c360048036038101906100be91906109fe565b610381565b005b6100cd610445565b6040516100da9190610a3a565b60405180910390f35b6100fd60048036038101906100f891906109ac565b61044b565b60405161010f96959493929190610ae5565b60405180910390f35b610132600480360381019061012d9190610bc0565b6106a7565b005b61014e60048036038101906101499190610d22565b61079f565b005b61016a60048036038101906101659190610bc0565b61090b565b60405161017993929190610e14565b60405180910390f35b61018a61094f565b6040516101979190610ec2565b60405180910390f35b60018060028111156101b5576101b4610e4b565b5b600460009054906101000a900460ff1660028111156101d7576101d6610e4b565b5b146101e157600080fd5b600260003373ffffffffffffffffffffffffffffffffffffffff1673ffffffffffffffffffffffffffffffffffffffff16815260200190815260200160002060020160009054906101000a900460ff1661023a57600080fd5b600260003373ffffffffffffffffffffffffffffffffffffffff1673ffffffffffffffffffffffffffffffffffffffff16815260200190815260200160002060000160009054906101000a900460ff161561029457600080fd5b6000821180156102a657506003548211155b6102af57600080fd5b6001600083815260200190815260200160002060020160008154809291906102d690610f0c565b91905055506001600260003373ffffffffffffffffffffffffffffffffffffffff1673ffffffffffffffffffffffffffffffffffffffff16815260200190815260200160002060000160006101000a81548160ff02191690831515021790555081600260003373ffffffffffffffffffffffffffffffffffffffff1673ffffffffffffffffffffffffffffffffffffffff168152602001908152602001600020600101819055505050565b60008054906101000a900473ffffffffffffffffffffffffffffffffffffffff1673ffffffffffffffffffffffffffffffffffffffff163373ffffffffffffffffffffffffffffffffffffffff16146103d957600080fd5b600460009054906101000a900460ff1660028111156103fb576103fa610e4b565b5b81600281111561040e5761040d610e4b565b5b1161041857600080fd5b80600460006101000a81548160ff0219169083600281111561043d5761043c610e4b565b5b021790555050565b60035481565b600160205280600052604060002060009150905080600001549080600101805461047490610f83565b80601f01602080910402602001604051908101604052809291908181526020018280546104a090610f83565b80156104ed5780601f106104c2576101008083540402835291602001916104ed565b820191906000526020600020905b8154815290600101906020018083116104d057829003601f168201915b50505050509080600201549080600301805461050890610f83565b80601f016020809104026020016040519081016040528092919081815260200182805461053490610f83565b80156105815780601f1061055657610100808354040283529160200191610581565b820191906000526020600020905b81548152906001019060200180831161056457829003601f168201915b50505050509080600401805461059690610f83565b80601f01602080910402602001604051908101604052809291908181526020018280546105c290610f83565b801561060f5780601f106105e45761010080835404028352916020019161060f565b820191906000526020600020905b8154815290600101906020018083116105f257829003601f168201915b50505050509080600501805461062490610f83565b80601f016020809104026020016040519081016040528092919081815260200182805461065090610f83565b801561069d5780601f106106725761010080835404028352916020019161069d565b820191906000526020600020905b81548152906001019060200180831161068057829003601f168201915b5050505050905086565b60008054906101000a900473ffffffffffffffffffffffffffffffffffffffff1673ffffffffffffffffffffffffffffffffffffffff163373ffffffffffffffffffffffffffffffffffffffff16146106ff57600080fd5b600080600281111561071457610713610e4b565b5b600460009054906101000a900460ff16600281111561073657610735610e4b565b5b1461074057600080fd5b6001600260008473ffffffffffffffffffffffffffffffffffffffff1673ffffffffffffffffffffffffffffffffffffffff16815260200190815260200160002060020160006101000a81548160ff0219169083151502179055505050565b60008054906101000a900473ffffffffffffffffffffffffffffffffffffffff1673ffffffffffffffffffffffffffffffffffffffff163373ffffffffffffffffffffffffffffffffffffffff16146107f757600080fd5b600080600281111561080c5761080b610e4b565b5b600460009054906101000a900460ff16600281111561082e5761082d610e4b565b5b1461083857600080fd5b6003600081548092919061084b90610f0c565b91905055506040518060c00160405280600354815260200186815260200160008152602001858152602001848152602001838152506001600060035481526020019081526020016000206000820151816000015560208201518160010190816108b49190611160565b506040820151816002015560608201518160030190816108d49190611160565b5060808201518160040190816108ea9190611160565b5060a08201518160050190816109009190611160565b509050505050505050565b60026020528060005260406000206000915090508060000160009054906101000a900460ff16908060010154908060020160009054906101000a900460ff16905083565b600460009054906101000a900460ff1681565b6000604051905090565b600080fd5b600080fd5b6000819050919050565b61098981610976565b811461099457600080fd5b50565b6000813590506109a681610980565b92915050565b6000602082840312156109c2576109c161096c565b5b60006109d084828501610997565b91505092915050565b600381106109e657600080fd5b50565b6000813590506109f8816109d9565b92915050565b600060208284031215610a1457610a1361096c565b5b6000610a22848285016109e9565b91505092915050565b610a3481610976565b82525050565b6000602082019050610a4f6000830184610a2b565b92915050565b600081519050919050565b600082825260208201905092915050565b60005b83811015610a8f578082015181840152602081019050610a74565b60008484015250505050565b6000601f19601f8301169050919050565b6000610ab782610a55565b610ac18185610a60565b9350610ad1818560208601610a71565b610ada81610a9b565b840191505092915050565b600060c082019050610afa6000830189610a2b565b8181036020830152610b0c8188610aac565b9050610b1b6040830187610a2b565b8181036060830152610b2d8186610aac565b90508181036080830152610b418185610aac565b905081810360a0830152610b558184610aac565b9050979650505050505050565b600073ffffffffffffffffffffffffffffffffffffffff82169050919050565b6000610b8d82610b62565b9050919050565b610b9d81610b82565b8114610ba857600080fd5b50565b600081359050610bba81610b94565b92915050565b600060208284031215610bd657610bd561096c565b5b6000610be484828501610bab565b91505092915050565b600080fd5b600080fd5b7f4e487b7100000000000000000000000000000000000000000000000000000000600052604160045260246000fd5b610c2f82610a9b565b810181811067ffffffffffffffff82111715610c4e57610c4d610bf7565b5b80604052505050565b6000610c61610962565b9050610c6d8282610c26565b919050565b600067ffffffffffffffff821115610c8d57610c8c610bf7565b5b610c9682610a9b565b9050602081019050919050565b82818337600083830152505050565b6000610cc5610cc084610c72565b610c57565b905082815260208101848484011115610ce157610ce0610bf2565b5b610cec848285610ca3565b509392505050565b600082601f830112610d0957610d08610bed565b5b8135610d19848260208601610cb2565b91505092915050565b60008060008060808587031215610d3c57610d3b61096c565b5b600085013567ffffffffffffffff811115610d5a57610d59610971565b5b610d6687828801610cf4565b945050602085013567ffffffffffffffff811115610d8757610d86610971565b5b610d9387828801610cf4565b935050604085013567ffffffffffffffff811115610db457610db3610971565b5b610dc087828801610cf4565b925050606085013567ffffffffffffffff811115610de157610de0610971565b5b610ded87828801610cf4565b91505092959194509250565b60008115159050919050565b610e0e81610df9565b82525050565b6000606082019050610e296000830186610e05565b610e366020830185610a2b565b610e436040830184610e05565b949350505050565b7f4e487b7100000000000000000000000000000000000000000000000000000000600052602160045260246000fd5b60038110610e8b57610e8a610e4b565b5b50565b6000819050610e9c82610e7a565b919050565b6000610eac82610e8e565b9050919050565b610ebc81610ea1565b82525050565b6000602082019050610ed76000830184610eb3565b92915050565b7f4e487b7100000000000000000000000000000000000000000000000000000000600052601160045260246000fd5b6000610f1782610976565b91507fffffffffffffffffffffffffffffffffffffffffffffffffffffffffffffffff8203610f4957610f48610edd565b5b600182019050919050565b7f4e487b7100000000000000000000000000000000000000000000000000000000600052602260045260246000fd5b60006002820490506001821680610f9b57607f821691505b602082108103610fae57610fad610f54565b5b50919050565b60008190508160005260206000209050919050565b60006020601f8301049050919050565b600082821b905092915050565b6000600883026110167fffffffffffffffffffffffffffffffffffffffffffffffffffffffffffffffff82610fd9565b6110208683610fd9565b95508019841693508086168417925050509392505050565b6000819050919050565b600061105d61105861105384610976565b611038565b610976565b9050919050565b6000819050919050565b61107783611042565b61108b61108382611064565b848454610fe6565b825550505050565b600090565b6110a0611093565b6110ab81848461106e565b505050565b5b818110156110cf576110c4600082611098565b6001810190506110b1565b5050565b601f821115611114576110e581610fb4565b6110ee84610fc9565b810160208510156110fd578190505b61111161110985610fc9565b8301826110b0565b50505b505050565b600082821c905092915050565b600061113760001984600802611119565b1980831691505092915050565b60006111508383611126565b9150826002028217905092915050565b61116982610a55565b67ffffffffffffffff81111561118257611181610bf7565b5b61118c8254610f83565b6111978282856110d3565b600060209050601f8311600181146111ca57600084156111b8578287015190505b6111c28582611144565b86555061122a565b601f1984166111d886610fb4565b60005b82811015611200578489015182556001820191506020850194506020810190506111db565b8683101561121d5784890151611219601f891682611126565b8355505b6001600288020188555050505b50505050505056fea2646970667358221220ca028e19c2ac4bfdeacd6575bc6110ec2d694f43c93fa0eb9573bc1d11f0316a64736f6c63430008110033",
  "immutableReferences": {},
  "source": "// SPDX-License-Identifier: MIT\r\npragma solidity 0.8.17;\r\n\r\ncontract Election{\r\n   struct Candidate {\r\n      uint id;\r\n      string cname;\r\n      uint voteCount;\r\n      string cparty;\r\n      string cbio;\r\n      string cimage;\r\n\r\n   }\r\n\r\n   struct Voter{\r\n        bool hasVoted;\r\n        uint vote;\r\n        bool isRegistered;\r\n   }\r\n\r\n   address admin;\r\n   mapping(uint => Candidate)\r\n   public candidates;\r\n\r\n   mapping(address => Voter)\r\n   public voters;\r\n   uint public candidatesCount;\r\n\r\n   enum PHASE{reg, voting, done}\r\n   PHASE public state;\r\n\r\n   modifier onlyAdmin(){\r\n\t\trequire(msg.sender==admin);\r\n\t\t_;\r\n\t}\r\n\t\r\n\tmodifier validState(PHASE x){\r\n\t    require(state==x);\r\n\t    _;\r\n\t}\r\n\r\n    constructor(){\r\n        admin=msg.sender;\r\n        state=PHASE.reg;   \r\n    }\r\n\r\n    function changeState(PHASE x) onlyAdmin public{\r\n\t\trequire(x > state);\r\n        state = x;\r\n    }\r\n\r\n    function addCandidate(string memory _cname , string memory _cparty , string memory _cbio , string memory    _cimage) public onlyAdmin validState(PHASE.reg){\r\n\t\tcandidatesCount++;\r\n        \r\n        candidates[candidatesCount]=Candidate(candidatesCount,_cname,0,_cparty,_cbio,_cimage);\r\n    \r\n\t}\r\n\r\n    function voterRegistration(address user) public onlyAdmin validState(PHASE.reg){\r\n\t\tvoters[user].isRegistered=true;\r\n\t}\r\n\r\n    function vote(uint _candidateId) public validState(PHASE.voting){\r\n        \r\n\t\trequire(voters[msg.sender].isRegistered);\r\n\t\trequire(!voters[msg.sender].hasVoted);\r\n        require(_candidateId > 0 && _candidateId<=candidatesCount);\r\n\t\tcandidates[_candidateId].voteCount++;\r\n\t\tvoters[msg.sender].hasVoted=true;\r\n\t\tvoters[msg.sender].vote=_candidateId;\r\n\t}\r\n\r\n}\r\n",
  "sourcePath": "C:\\Users\\Administrator\\Desktop\\Projects\\Builds\\e-voting-system-using-blockchain-technology\\smart_contract\\contracts\\Election.sol",
  "compiler": {
    "name": "solc",
    "version": "0.8.17+commit.8df45f5f.Emscripten.clang"
  },
  "schemaVersion": "3.4.11",
  "updatedAt": "2022-12-17T16:20:47.690Z",
  "devdoc": {
    "kind": "dev",
    "methods": {},
    "version": 1
  },
  "userdoc": {
    "kind": "user",
    "methods": {},
    "version": 1
  }
}